{
  "contractName": "BackupContract",
  "abi": [
    {
      "anonymous": false,
      "inputs": [
        {
          "indexed": true,
          "internalType": "address",
          "name": "user",
          "type": "address"
        },
        {
          "indexed": false,
          "internalType": "string",
          "name": "ipfsHash",
          "type": "string"
        }
      ],
      "name": "BackupStored",
      "type": "event"
    },
    {
      "inputs": [
        {
          "internalType": "string",
          "name": "ipfsHash",
          "type": "string"
        }
      ],
      "name": "storeBackup",
      "outputs": [],
      "stateMutability": "nonpayable",
      "type": "function"
    },
    {
      "inputs": [
        {
          "internalType": "address",
          "name": "user",
          "type": "address"
        }
      ],
      "name": "getBackupFor",
      "outputs": [
        {
          "internalType": "string",
          "name": "",
          "type": "string"
        }
      ],
      "stateMutability": "view",
      "type": "function"
    },
    {
      "inputs": [],
      "name": "getBackup",
      "outputs": [
        {
          "internalType": "string",
          "name": "",
          "type": "string"
        }
      ],
      "stateMutability": "view",
      "type": "function"
    }
  ],
  "bytecode": "0x608060405234801561001057600080fd5b50610483806100206000396000f3fe608060405234801561001057600080fd5b50600436106100415760003560e01c80634fab82231461004657806353a0f74714610064578063959e93be14610079575b600080fd5b61004e61008c565b60405161005b91906103a9565b60405180910390f35b610077610072366004610308565b61011e565b005b61004e6100873660046102da565b610195565b60606001805461009b906103fc565b80601f01602080910402602001604051908101604052809291908181526020018280546100c7906103fc565b80156101145780601f106100e957610100808354040283529160200191610114565b820191906000526020600020905b8154815290600101906020018083116100f757829003601f168201915b5050505050905090565b33600090815260208181526040909120825161013c92840190610241565b508051610150906001906020840190610241565b50336001600160a01b03167ffd8504ad8d4ebf06be5ab02061eaa3dba060da75f5aa3758074b3fbef631c78d8260405161018a91906103a9565b60405180910390a250565b6001600160a01b03811660009081526020819052604090208054606091906101bc906103fc565b80601f01602080910402602001604051908101604052809291908181526020018280546101e8906103fc565b80156102355780601f1061020a57610100808354040283529160200191610235565b820191906000526020600020905b81548152906001019060200180831161021857829003601f168201915b50505050509050919050565b82805461024d906103fc565b90600052602060002090601f01602090048101928261026f57600085556102b5565b82601f1061028857805160ff19168380011785556102b5565b828001600101855582156102b5579182015b828111156102b557825182559160200191906001019061029a565b506102c19291506102c5565b5090565b5b808211156102c157600081556001016102c6565b6000602082840312156102eb578081fd5b81356001600160a01b0381168114610301578182fd5b9392505050565b6000602080838503121561031a578182fd5b823567ffffffffffffffff80821115610331578384fd5b818501915085601f830112610344578384fd5b81358181111561035657610356610437565b604051601f8201601f191681018501838111828210171561037957610379610437565b604052818152838201850188101561038f578586fd5b818585018683013790810190930193909352509392505050565b6000602080835283518082850152825b818110156103d5578581018301518582016040015282016103b9565b818111156103e65783604083870101525b50601f01601f1916929092016040019392505050565b60028104600182168061041057607f821691505b6020821081141561043157634e487b7160e01b600052602260045260246000fd5b50919050565b634e487b7160e01b600052604160045260246000fdfea264697066735822122034c4f5a602ee5e2cdf76ce362669516e1c8de6cae243c520098aa85f2b1e67eb64736f6c63430008000033",
  "immutableReferences": {},
  "source": "// SPDX-License-Identifier: MIT\r\npragma solidity ^0.8.0;\r\n\r\ncontract BackupContract {\r\n    mapping(address => string) private backups;\r\n    string private latestBackup;\r\n    \r\n    event BackupStored(address indexed user, string ipfsHash);\r\n    \r\n    function storeBackup(string memory ipfsHash) public {\r\n        backups[msg.sender] = ipfsHash;\r\n        latestBackup = ipfsHash;\r\n        emit BackupStored(msg.sender, ipfsHash);\r\n    }\r\n    \r\n    function getBackupFor(address user) public view returns (string memory) {\r\n        return backups[user];\r\n    }\r\n    \r\n    function getBackup() public view returns (string memory) {\r\n        return latestBackup;\r\n    }\r\n}",
  "sourcePath": "C:\\Users\\USER\\Desktop\\Chatty\\backend\\contracts\\BackupContract.sol",
  "compiler": {
    "name": "solc",
    "version": "0.8.0+commit.c7dfd78e.Emscripten.clang"
  },
  "schemaVersion": "3.4.16",
  "updatedAt": "2025-03-22T18:47:22.111Z",
  "devdoc": {
    "kind": "dev",
    "methods": {},
    "version": 1
  },
  "userdoc": {
    "kind": "user",
    "methods": {},
    "version": 1
  }
}